:1000000002308A00162A0000D4306F10CD253A0045
:100010004E346138A0264B1D0001D3306910CD2528
:100020000001CD25A031E8346E34203CE1310001DF
:10003000C33A61106334F53020326F376700C33A3A
:100040006110E437EE3300014E346138A0264B10C6
:10005000E33A201D0001D3306910CD2500014E3454
:100060006138A0264B10ED37691D0001C837613794
:10007000203A613AA031E1342032613A00004A303E
:1000800084000008031951280330A100A001A00B2F
:100090004728A10B46289530A000A00B4D28800BC7
:1000A0004428080083160510831205108316851056
:1000B00083128514831686018312490886000A304C
:1000C000CA003F2083168510831285100A30CA00AB
:1000D0003F20080083160510831205108316851033
:1000E000831285108316860183128601C830CA00E8
:1000F0003F203030C90052203230CA003F2030301B
:10010000C90052206E30CA003F203030C900522052
:100110000A30CA003F203830C90052200A30CA00D5
:100120003F200C30C90052200A30CA003F20063060
:10013000C90052200A30CA003F200130C9005220B5
:100140000A30CA003F208A11392A460BB028803075
:100150004707C800C90052200A30CA003F20B8280B
:10016000C0304707C800C90052200A30CA003F20EB
:1001700008004508840049088000840A8001C50AF7
:100180000800831603178C170C140000000083125C
:100190000C087F39031905290313C60003170D083E
:1001A0000313C70003170F080313C8004608C9004C
:1001B000B920470803178D000313480803178F0061
:1001C00083168C170C140000000083120C0D0E0D0A
:1001D0007F39031905290313C60003170D080313FC
:1001E000C70003170F080313C8004608C900B92049
:1001F000470803178D000313480803178F008D0A63
:1002000003198F0A0313C128031703130800831669
:100210000510831205148316851083128514831626
:1002200086018312480886000A30CA003F208316E0
:100230008510831285100A30CA003F200800460846
:100240008400800803192C29460884000008C70090
:10025000C8000721C60A1F2908004416440883164F
:1002600087008312071E2D29441644088316870031
:100270008312071E5A29FF30C40083168700831299
:10028000070EA000F030A0052008200EAF000F30B0
:10029000AF050A30CA003F202F08073C0318532936
:1002A0000830AF0259292F08053C031C5929083092
:1002B000AF07342908002F08093C031C6B292A309A
:1002C000C80007210A30CA003F2024302C078400D0
:1002D0002F08800082292F080A3C031D8129103035
:1002E000C90052200A30CA003F202030C800072130
:1002F0000A30CA003F201030C90052200230AC0240
:100300008229AC0308000730C702031C9829473034
:100310008400FC3080050310800C800C0008031959
:1003200098290230A000A00B93290000800B91298E
:100330000800AC012C08313C031CB8298316851138
:10034000831285150130CA003F200530C600A93050
:10035000C7008321C60BA729831685118312851137
:100360001230CA003F209630C7008321AC0A9A2978
:1003700008002F08093C031CC9292A30C80007219E
:100380000A30CA003F2028302C0784002F08800044
:10039000E0292F080A3C031DDF291030C900522034
:1003A0000A30CA003F202030C80007210A30CA00A6
:1003B0003F201030C90052200230AC02E029AC03CB
:1003C0000800AC012C08033C031CF42928302C073E
:1003D00084000008C60024302C0784000008460270
:1003E0000319AE0AAC0AE2290800AC012C08313C22
:1003F000031C142A83168511831285150130CA0047
:100400003F209630C7008321831685118312851102
:100410001230CA003F200530C600A930C700832132
:10042000C60B0D2AAC0AF6298A11C52A84011F3091
:100430008305113083169900A23098009030831202
:10044000980083161F149F141F159F1107309C00DE
:10045000FF308312C400C50100308316860085007A
:100460001F3087008312C400831685018312850123
:100470006A280130C600C701A5203030C50004300D
:1004800003178D0000308F000313C1203030C600E9
:100490001F210A30CA003F20AC012C08033C031C7A
:1004A000552A2D215B21AC0A4D2A0130C90052206A
:1004B0000A30CA003F209921AE012D212F080B3CA4
:1004C000031D1C2B0130C600C701A5200A30CA003D
:1004D0003F203030C500083003178D0000308F00FA
:1004E0000313C1203030C6001F210A30CA003F204C
:1004F000AC012C08033C031C812A2D21B921AC0A34
:10050000792AE1212E08043C0319A82A0130C900E8
:1005100052200A30CA003F200130C600C701A52082
:100520000A30CA003F203030C5000D3003178D005F
:1005300000308F000313C1203030C6001F21083067
:10054000C600FA30CA003F20C60BA12A552A1B2B31
:100550000130C90052200A30CA003F200130C600D5
:10056000C701A5200A30CA003F203030C500113035
:1005700003178D0000308F000313C1203030C600F8
:100580001F210A30CA003F20F529AD012D0FC92ACD
:10059000DF2AAC012C0FCD2ADD2AAE012E08383C13
:1005A000031CDB2A44164408831687008312071AAB
:1005B000F82AAE0ACE2AAC0ACA2AAD0AC62A0130E7
:1005C000C90052200A30CA003F203030C500183020
:1005D00003178D0000308F000313C1203030C60098
:1005E0001F210A30CA003F2083160511831205150A
:1005F0002D212F080C3C031D1A2B99218316051160
:10060000831205110130C90052203030C5001F305F
:1006100003178D0000308F000313C1203030C60057
:100620001F210830C600FA30CA003F20C60B132B2A
:10063000552A1B2BC52A9E2B2F080D3C031D9E2BD4
:100640000130C600C701A5203030C5002430031793
:100650008D0000308F000313C1203030C6001F21F1
:100660000A30CA003F20AC012C08033C031C3C2B81
:100670002D21B921AC0A342BE1212E08043C0319A9
:10068000642B0130C90052200A30CA003F200130DB
:10069000C600C701A5200A30CA003F203030C5007F
:1006A0002B3003178D0000308F000313C120303032
:1006B000C6001F210830C600FA30CA003F20C60B12
:1006C0005C2BAE01552A9E2B0230C600C701A52027
:1006D0000A30CA003F203030C5002F3003178D008C
:1006E00000308F000313C1203030C6001F210A30B4
:1006F000CA003F20AC012C08033C031C832B2D2196
:100700005B21AC0A7B2B0130C90052200A30CA00A1
:100710003F203030C500363003178D0000308F0089
:100720000313C1203030C6001F210830C600FA3044
:10073000CA003F20C60B972BAE01552A5C2A6300E6
:02400E003A3F37
:00000001FF
;PIC16F873A
;CRC=4698  CREATED="07-Dec-16 13:37"
